:1000000058070020890700008507000085070000C9
:1000100000000000000000000000000000000000E0
:100020000000000000000000000000008507000044
:1000300000000000000000008507000085070000A8
:100040008507000085070000850700008507000080
:100050008507000085070000850700008507000070
:100060008507000085070000850700008507000060
:100070008507000085070000850700008507000050
:100080008507000085070000850700008507000040
:100090008507000085070000850700008507000030
:1000A0008507000085070000850700008507000020
:1000B0008507000085070000850700008507000010
:1000C0008507000085070000850700008507000000
:1000D00085070000850700008507000085070000F0
:1000E00085070000850700008507000085070000E0
:1000F00085070000FF2303409B0041F6004CC4F23B
:10010000000C634480229A580120520604D44022F5
:100110001143403299500020010002000300844640
:100120008EF300887447F0B5CE46474680B587B059
:10013000029003910492059342F60023C4F2000357
:10014000986899691A6BDC69A4461F6C029E464048
:100150003E404640049B01931D004D403D404D40B4
:10016000059C54403C405440A146002100230120FE
:1001700040F20F0802E00133082B08D002009A4039
:100180001742F8D09A00444694402143F3E7604672
:10019000039B584008406346584042F60023C4F28F
:1001A00000031A7802218A431A7042F60022C4F230
:1001B0000002013153681942FCD142F60022C4F218
:1001C0000002022153681942FCD142F60023C4F216
:1001D00000039E609D614A461A63D8611A78022125
:1001E0000A431A7042F60022C4F200020131536839
:1001F0001942FCD1002007B0010002000300844630
:100200000CBC90469946F0BC02BC864681F300883F
:100210000C47000010B540F26804C2F200042378D5
:1002200063B940F20003C0F200032BB144F2200096
:10023000C0F2800000E000BF0123237010BDC04663
:1002400040F20003C0F2000310B54BB140F26C0164
:1002500044F22000C2F20001C0F2800000E000BFC2
:1002600044F22000C0F28000036803B910BD40F2E0
:100270000003C0F20003002BF8D09847F6E7C04611
:1002800010B540F6FB13C0F20003984743F2002379
:10029000C4F200030022DA664EF20013CEF200032D
:1002A00040F280215A5004315A5010BD10B540F22E
:1002B000A403C2F200031870597040F29C02C2F20B
:1002C000000210680222190040F63F33C0F200031A
:1002D000984710BD30B583B06B46DC1DD87140F235
:1002E0009C05C2F2000501222100286840F63F3338
:1002F000C0F20003984728680122210040F67533B8
:10030000C0F200039847207803B030BD70B540F2CA
:10031000A404C2F20004F723237040F29C05C2F249
:10032000000501222100286840F63F33C0F2000397
:10033000984728680822210040F67533C0F2000370
:10034000984740F20012C2F20002A3791B02E17941
:100350000B43136040F29402C2F2000223791B01A6
:10036000617909090B43E17809030B43136040F2FB
:10037000A002C2F2000263781B01A17809090B43B5
:10038000217809030B43136070BD10B5F32040F2D0
:10039000D523C0F20003984710BD10B5F42040F2F9
:1003A000D523C0F20003984710BD10B5F52040F2E8
:1003B000D523C0F20003984710BD70B5892040F2E4
:1003C000D525C0F20005A84740F2B804C2F20004E7
:1003D00020608820A84723681B02181820608B2003
:1003E000A84760608A20A84763681B0218186060ED
:1003F0008D20A847A0608C20A847A3681B0218186E
:10040000A0608F20A847E0608E20A847E3681B0209
:100410001818E0609120A84720619020A847236920
:100420001B02181820619320A84760619220A847FA
:1004300063691B02181860619520A847A061942089
:10044000A847A3691B021818A0619720A847E0617C
:100450009620A847E3691B021818E0619920A84775
:1004600020629820A847236A1B02181820629B204C
:10047000A84760629A20A847636A1B021818606246
:100480009D20A847A0629C20A847A36A1B021818B9
:10049000A0629F20A847E0629E20A847E36A1B0253
:1004A0001818E062A120A8473023E054E220A847B2
:1004B0006063E120A847636B1B0218186063E320A8
:1004C000A8473823E054E420A847E063E520A84784
:1004D0000600E36B1B010F2202401343E363E62097
:1004E000A84700013609F6B206432664E720A8476C
:1004F0004423E05270BD10B5040040F29B33C0F2BB
:1005000000039847A4001C23010099432143C9B26A
:10051000F42040F2AD23C0F20003984710BD10B59F
:10052000040040F29B33C0F20003984764011F218E
:1005300001402143C9B2F42040F2AD23C0F20003D0
:10054000984710BD10B50100F22040F2AD23C0F273
:100550000003984710BD10B5040040F29B33C0F271
:10056000000398472043C1B2F42040F2AD23C0F20B
:100570000003984710BD10B540F2AB33C0F2000342
:10058000984710BD10B540F2AB33C0F20003984756
:1005900010BD10B540F28B33C0F20003984708231A
:1005A000184010BD10B540F29403C2F20003186861
:1005B00040F2B802C2F20002116803115B1AC010C7
:1005C0004900401A51684843C0125B431B139268AC
:1005D00053439B13C01840F20C13C2F2000318607F
:1005E000830018188030001242F2A933C0F20003D1
:1005F000984741F6BD63C0F200030021C4F2C82150
:10060000984710BD70B540F20C13C2F200031A688F
:100610004DF2004CCFF6FE7C624440F20013C2F271
:1006200000031B689B0340F2B801C2F20001C86BD3
:1006300000051B1A086C50431B1A44F2000C63445B
:10064000DB133820085C5043C01248F20004041940
:100650004420085E5043801260438012802292033F
:10066000944660444A6B504342F2000C604480134D
:100670004343D8134043C01130228A5C50430011D9
:10068000181AC343DB171840C8235B05984200DDE6
:100690001800001342F24943C0F20003984742F2A7
:1006A0005113C0F20003EA218905984770BD00008C
:1006B00010B540F20C13C2F200031A6852102F4B0F
:1006C0009C4662449110494340F2B803C2F20003D1
:1006D00048135C696043C0101C69544364100019DE
:1006E000801448F2000C6044DC684443E4130020AA
:1006F00094B3C91240F2B803C2F20003186A41432E
:10070000D86942435200511889109A69120452184C
:10071000121340F2A003C2F200031B68D21818495A
:100720004A430023CCF25033D21823D45200B2FBF8
:10073000F4F4E0084043400B40F2B802C2F2000279
:10074000D36A58430013A108936A594349134018C8
:10075000526A80180011001942F24943C0F20003A6
:10076000984741F6BD63C0F200030021C4F2C821DE
:10077000984710BDB2FBF4F46400DAE70006FFFF0F
:10078000CBF3FFFFFEE7000010B545F6EC52C0F2D8
:10079000000240F20003C2F200039A4220D01A0085
:1007A00040F26803C2F200039A4219D240F2680391
:1007B000C2F200030333244A9B1A9B0801339B00B7
:1007C000002240F20001C2F20001511845F6EC503F
:1007D000C0F2000010180068086004329A42F0D19C
:1007E00040F26802C2F2000240F25413C2F2000367
:1007F0009A4213D240F26802C2F20002D34340F29E
:100800005411C2F200018C46634403218B4304332C
:1008100094466344002102C29342FCD140F200039B
:10082000C0F200037F2293434EF60052CEF2000244
:10083000936043F6C933C0F20003984741F693230F
:10084000C0F200039847FEE70400002070B543F2B1
:100850000023C4F200035020195C04229143195470
:10086000195C0125A94301242143C9B21954183840
:10087000195C0F26B1430C3E3143195451215E5C83
:1008800096435E545A5CAA432243D2B25A541A5C2D
:1008900042390A4021310A431A5470BD41F60043DF
:1008A000C4F200034021AC2299500331043A99501C
:1008B00040F60003C4F20003DA6941390A43DA6101
:1008C000704710B540F69D03C0F20003984740F210
:1008D0000041C4F2002140F22010C2F2000040F6B4
:1008E000D123C0F20003984740F64D03C0F2000345
:1008F000984710BD30B543F20023C4F200034822EC
:10090000995C0125A94301242143C9B2995434209B
:10091000195C393A91430C3A1143195449215A5CF4
:10092000AA432243D2B25A541A5C3A390A402131BE
:100930000A431A5430BD41F60043C4F2000340217B
:10094000B422995003310C3A995040F60003C4F296
:100950000003DA693B390A43DA61704710B540F6A3
:100960003713C0F20003984740F60041C4F200215B
:1009700040F21410C2F20000002240F69F43C0F281
:100980000003984740F6F503C0F20003984710BDF6
:1009900010B54EF21000CEF2000040F63123C0F246
:1009A0000003984710BD40F60003C4F200035A69E3
:1009B00040F200110A435A61704710B540F6A71380
:1009C000C0F20003984745F6C411C0F20001482266
:1009D000012040F64D53C0F20003984740F210103A
:1009E000C2F2000042F20003C4F20003036041F2CD
:1009F0009573C0F20003984710BD10B540F68D53B3
:100A0000C0F20003984740F6C303C0F200039847C2
:100A100040F65D13C0F20003984740F69113C0F210
:100A20000003984740F6BB13C0F20003984710BD7F
:100A300010B540F28403C2F20003186041F21D7346
:100A4000C0F20003984710BD10B540F28403C2F213
:100A500000031C6840F68553C0F20003984701006C
:100A6000200041F23573C0F20003984710BD00002A
:100A700010B584B0140001AB1438828B1A80029434
:100A8000064A5A800391190041F2E913C0F20003AB
:100A9000984700B9200004B010BDC0460080FFFF99
:100AA00010B584B0140001AB1438828B1A80029404
:100AB000064A5A800391190041F2E913C0F200037B
:100AC000984700B9200004B010BDC0460180FFFF68
:100AD00070B504000D0045F6E011C0F20001431EA0
:100AE0009841C0B25E2240F64D53C0F200039847D1
:100AF0002900200041F24313C0F20003984748B98F
:100B000040F6A123C0F20003A36140F67123C0F2B6
:100B10000003636170BD10B541F27713C0F20003AA
:100B2000984710BD40F2FF33194001331A400A4381
:100B3000828310007047143008600020704770B541
:100B400006000C00150098B10800431E9841C0B281
:100B500045F6FC11C0F20001342240F64D53C0F2BC
:100B60000003984733682A0021003000984770BD81
:100B70000020EDE770B506000C00150098B10800E4
:100B8000431E9841C0B245F6FC11C0F200013D225F
:100B900040F64D53C0F20003984773682A002100C5
:100BA0003000984770BD0020EDE7F8B5CE464746C7
:100BB00080B504000F009046002837D0002937D0B8
:100BC0001000431E984145F61021C0F20001F122A9
:100BD00040F64D53C0F200039847083441F2251502
:100BE000C0F200052000A8470028FBD0002641F2F3
:100BF0001519C0F2000941F22515C0F20005B95DD2
:100C00002000C8472000A8470028FBD001364645F1
:100C1000F5D341F22F15C0F200052000A8470028A7
:100C2000FBD030000CBC90469946F8BD0020CAE7C6
:100C30000020C8E7F8B5CE46474680B50400884690
:100C4000914640B349B31000431E984145F6102128
:100C5000C0F2000140F20C1240F64D53C0F2000306
:100C600098470026083441F23915C0F2000541F2D8
:100C70001D17C0F200072000A8470028FBD0200065
:100C8000B8474346985501364E45F4D330000CBC66
:100C900090469946F8BD0020D8E70020D6E770B509
:100CA00005000C0008B30800431E9841C0B245F689
:100CB0001021C0F20001342240F64D53C0F200036F
:100CC000984728000830210041F2D103C0F2000308
:100CD000984748B940F63543C0F200036B6040F6D0
:100CE000AB33C0F200032B6070BD0020DFE710B50E
:100CF000040045F61021C0F20001431E9841C0B225
:100D0000532240F64D53C0F20003984720000830AC
:100D100041F20113C0F200039847002010BD70B5E6
:100D200004000D0080B10800431E9841C0B245F692
:100D30001021C0F20001692240F64D53C0F20003B9
:100D400098472C60002070BD0020F0E700B900BE7D
:100D50007047020040F28803C2F200031B683BB1F7
:100D600040F28803C2F20003186882181A607047C4
:100D700040F28803C2F2000340F25871C2F200014F
:100D80001960EDE740F6A0735843704710B545F27F
:100D90000003C4F200135A685A60002040F68B63C7
:100DA000C0F20003984740F63963C0F20003984749
:100DB00040F65B63C0F20003984740F62B63C0F235
:100DC0000003984740F68963C0F2000398471F204C
:100DD00040F6DD53C0F20003984710BDC30710D59D
:100DE00041F60043C4F2000340F20512C0F20102D2
:100DF0001A6241F60042C4F200027D215368194292
:100E0000FCD1030710D541F60043C4F2000340F2C1
:100E10000412C0F20102DA6241F60042C4F200029A
:100E20007D2153681942FCD1704740F60003C4F29B
:100E3000000301221A71704741F20043C4F200031B
:100E400086229A8200229A75DA75DA6941F6007173
:100E50000A40DA6104221A74704741F20003C4F2B6
:100E6000000302221A7641F20002C4F200021021AD
:100E700013691942FCD041F20003C4F200031A7E48
:100E800080210A431A767047704740F20043C4F24B
:100E900000039B7803221340984212D040F2004294
:100EA000C4F20002FF239371937803218B4308401F
:100EB0001843907040F20042C4F200029379002B74
:100EC000FCD0704730B585B001AA45F62C23C0F29E
:100ED000000332CB32C20300019A82420CD0029A44
:100EE000824207D00020039A9A4201D005B030BD5B
:100EF000023002E0012000E00020C0B2F6E700006E
:100F000010B5040040F6C563C0F2000398470228FC
:100F10000BD045F65021C0F2000140F247220020DC
:100F200040F64D53C0F200039847E369DB0718D43D
:100F30000322E3691A42FCD123689B070BD523687F
:100F40000222934323600132E3691A42FCD1022258
:100F5000E3691A42FCD1052323600322E3691A42A4
:100F6000FCD10122E3691A42FCD10423C4F210032C
:100F700023600322E3691A42FCD1C0239B02636011
:100F80000F22E3691A42FCD10223C0F27003A3606E
:100F9000034BA3810023A3733022A354002010BD70
:100FA00004C5FFFF10B540F6C563C0F200039847C3
:100FB00068B145F65021C0F2000140F2A63200208F
:100FC00040F64D53C0F2000398470120404210BD47
:100FD00070B505000C00080040F6A573C0F20003D0
:100FE0009847C0B2E369DB0725D443001B18DB0038
:100FF00045F62C22C0F200029446634419691C2372
:1010000019400322E3691A42FCD123689B070BD5E0
:1010100023680222934323600132E3691A42FCD120
:101020000222E3691A42FCD101230B43236003220D
:10103000E3691A42FCD10122E3691A42FCD1430060
:101040001B18DB0045F62C22C0F2000294466344D4
:10105000196921600322E3691A42FCD143001B187D
:10106000DB0045F62C22C0F20002944663445B6923
:1010700063600422E3691A42FCD143001B18DB00C1
:1010800045F62C22C0F20002944663449B69E3605B
:101090008901890FA981636A0C4E1E4001238B428E
:1010A0009B415B429B03334363620422E3691A4220
:1010B000FCD143001818C00045F62C23C0F20003F1
:1010C0009C466044C38BEB81002070BDFFBFFFFFD7
:1010D00070B505000C0045F65021C0F20001431E1A
:1010E0009841C0B2BB2240F64D53C0F2000398476E
:1010F0002C60200040F60173C0F20003984770BDD9
:101100000268136802210B4313600131D36919424D
:10111000FCD17047036889B2198570470368188D40
:10112000C0B270470368187E0123184070470368F7
:10113000187E8007C00F70470368187E4007C00FF5
:10114000704770B504000D0045F65021C0F2000153
:10115000431E9841C0B240F21A5240F64D53C0F2BD
:101160000003984725612900200040F6D173C0F2A2
:101170000003984770BD70B5040045F65026C0F2D4
:101180000006431E9841C0B240F23752310040F68B
:101190004D55C0F20005A84724692000431E984120
:1011A000C0B240F208623100A8472368022213430C
:1011B00023600132E3691A42FCD14FF6FF71042229
:1011C00003201025E3691A42FCD1638B1B090340FD
:1011D000012B07D001390029F4DC6583E3691A4249
:1011E000FCD1EFE7002070BDF0B5DE4657464E4615
:1011F0004546E0B583B00500884604690600731EC5
:101200009E41F3B2019345F65026C0F2000640F22B
:10121000D4523100180040F64D57C0F20007B847CD
:101220002869431E9841C0B240F2D5523100B847F8
:101230004046431E9841C0B240F2D6523100B847F2
:101240006B88DB0500D51EE243465B8840F2001246
:101250001343424653802B0043CA43C3636840F2A2
:10126000001213436360FC3AE3691A42FCD12F6910
:101270003B68994645F65021C0F2000140F2A95260
:10128000019840F64D53C0F2000398476B68012B5C
:101290005CD07B68B64A13407B600422FB691A422B
:1012A000FCD12B885A055ED56A88D20704D56A8896
:1012B00040F200410A436A805B0040F2FE7119402F
:1012C0000422FB691A42FCD17A6A44F200031340FB
:1012D00048F2000213430B437B620422FB691A426B
:1012E000FCD129690B7EDBB24FF6FF720320184256
:1012F00004D10B7EDBB2013A002AF8D13E6804210A
:10130000FA691142FCD17A8B92B2D90700D49FE0DE
:1013100093073ED501233B766B8841F200010B43D6
:101320006B806B8893490B406B8001200300134056
:101330005842584105386B888E4A13406B8003B081
:101340003CBC90469946A246AB46F0BD4B461B01BD
:101350009FD57A688023DB0213437B600422FB69FC
:101360001A42FCD19DE76A885B00FF210B40FE39E1
:10137000114019430422FB691A42FCD17A6A44F2F3
:10138000000313400B437B620422FB691A42FCD129
:10139000A7E753071BD46B885B0535D52B88DB0982
:1013A000062119400422FB691A42FCD17A6A44F2F0
:1013B00000031340F12213430B437B62ED3AFB69B8
:1013C0001A42FCD16B886C4A13406B8065E06B68F5
:1013D000002B04DD6B8841F2000213436B806B88A5
:1013E0001BB2002B06DB6B88624A13406B80022025
:1013F0004042A0E77A68C0239B0213437B6004232A
:10140000FA691342FCD1EEE76B6893B96B881BB2A3
:10141000002B04DB6B88574A13406B803DE07A68F1
:10142000C0239B0213437B600422FB691A42FCD158
:10143000F0E7AB681A782823FA540422FB691A42B1
:10144000FCD1AB680133AB606B68013B6B6024E09F
:101450009B0722D56B68002B3FD052073DD4360145
:10146000F60F013B6B60002B00D00FE1002E00D186
:1014700012E16B881BB2002B1CDB6B883D4A1340CA
:101480006B80A9684B1CAB600422FB691A42FCD13B
:101490002823FB5C0B7002233B760023019340F270
:1014A000001A0321042240F2010C40F2020940F22A
:1014B000280BB3E07B682F4A13407B600632FF3273
:1014C000FB691A42FCD17A68C0239B0213437B60FC
:1014D0000422FB691A42FCD1CFE702233B760220AB
:1014E000404228E76268C0239B02134363600422E2
:1014F000E3691A42FCD1A7E002421BD16B885B056D
:101500003CD52B88DB0906201840E3691A42FCD140
:10151000666A44F200033340F126334303436362B7
:10152000E3691A42FCD16B88134803406B800023A7
:10153000019373E06B68002B04DD6B8841F20000BF
:1015400003436B806B881BB2002B07DB6B88094859
:1015500003406B8002235B4201935FE06068C0231D
:101560009B0203436360E3691A42FCD1EEE7C04685
:10157000FFFFFBFFFFFEFFFFFFFBFFFF6B689BB959
:101580006B881BB2002B06DB6B88634803406B80C3
:101590000023019342E06068C0239B020343636021
:1015A000E3691A42FCD1EFE7AB681B785846235435
:1015B000E3691A42FCD1AB680133AB606B68013B55
:1015C0006B600023019329E0002701974F461F42DB
:1015D00024D06B68002B4ED002424CD1F60E6046F0
:1015E0000640013B6B60002B00D082E0002E00D152
:1015F00085E06B881BB2002B2DDB6B8846480340CF
:101600006B80A868431CAB60E3691A42FCD15B465F
:10161000E35C03704B462376002301936B885046AE
:1016200003422ED02E69337EDBB24FF6FF70194293
:1016300040D1337EDBB201380028F8D143465B88C5
:101640001BB2002B00DA4DE76B88334A13406B80E6
:101650000520404273E663682F4803406360E369F6
:101660001A42FCD16068C0239B0203436360E369B4
:101670001A42FCD1C1E74B46237602235B42019319
:10168000CCE701985BE60620404258E6012B00D0EB
:10169000F7E6002E00D1F4E67A688023DB021343DC
:1016A0007B600422FB691A42FCD16B68002B00D1DD
:1016B000DFE6E6E62668E0690242FCD1608B80B294
:1016C00067461F4200D17FE74B46034200D113E734
:1016D00027766B8841F2000633436B806B880E4E91
:1016E00033406B806346034058425841431F019387
:1016F00094E7012B00D084E7002E00D181E76068D9
:101700008023DB0203436360E3691A42FCD16B6808
:10171000002B00D16DE774E7FFFEFFFF4EF21003D0
:10172000CEF20003024A5A6005221A607047C04692
:10173000FFFFFF0070B50B0E5E1EF6B2C3B13400A2
:101740004EF21002CEF20002114D80204002556090
:10175000956013680342FCD0013CE4B2FF2CF6D143
:101760003306F61A40F2010CCFF6007C6144711882
:101770004EF21003CEF20003596099604EF210024F
:10178000CEF200028021490213680B42FCD070BDEA
:10179000FFFFFF0010B5040000282BD00068431E97
:1017A0009841C0B245F66C21C0F20001502240F6CB
:1017B0004D53C0F20003984723681E219A681142D6
:1017C000FCD11A78D209BAB91E219A681142FCD10B
:1017D0001A78920713D41A7804218A431A701A319E
:1017E0009A681142FCD1226853780F218B435370C1
:1017F000002010BD0020D5E711204042F9E711205C
:101800004042F6E710B540F24411C2F2000140F246
:101810001414C2F20004200040F61F53C0F200036B
:101820009847200040F6EF43C0F20003984710BDF0
:1018300030B583B06B46DC1DD87140F29C05C2F216
:10184000000501222100286840F63F33C0F2000362
:10185000984728680122210040F67533C0F2000342
:101860009847207803B030BD10B540F29C01C2F219
:10187000000140F22014C2F20004200040F6373389
:10188000C0F200039847200040F61733C0F200036F
:10189000984740F600027621200040F62533C0F23A
:1018A0000003984710BD10B5002040F28553C0F2E8
:1018B00000039847042040F27753C0F20003984792
:1018C000052040F2F743C0F200039847022040F29F
:1018D0001F53C0F200039847012040F24553C0F265
:1018E00000039847032040F25753C0F20003984783
:1018F00010BDF0B5CE46474680B589B040F200092C
:10190000C2F200094B461878022206A943F6494361
:10191000C0F20003984740F2A553C0F20003984775
:1019200042F25113C0F200030021C4F21011984793
:1019300041F6BD63C0F200030021C4F2A001984744
:1019400041F6A533C0F200038421C905984740F24F
:101950004C18C2F200084346186043F62107C0F253
:101960000007B84701AB052243F67D36C0F20006FA
:10197000B04745F68421C0F2000140F24415C2F29E
:1019800000050622286840F63F34C0F20004A04754
:10199000022206A92868A04745F68C21C0F2000162
:1019A00007222868A047052201A92868A04745F614
:1019B0009421C0F2000103222868A04740F2B163DD
:1019C000C0F20003984743461860B84701AB0622AF
:1019D000B04745F69821C0F2000106222868A047CA
:1019E000022206A92868A04745F6A021C0F20001FE
:1019F00006222868A047062201A92868A04745F6C4
:101A0000A821C0F2000105222868A04740F2056322
:101A1000C0F20003984743461860B84701AB05225F
:101A2000B04745F6B021C0F2000106222868A04761
:101A3000022206A92868A04745F6B821C0F2000195
:101A400007222868A047052201A92868A04745F673
:101A5000C021C0F2000103222868A04745F6AC214E
:101A6000C0F2000128680122A0474B461B780133D1
:101A7000DBB2642B06D04A46137009B00CBC90460A
:101A80009946F0BD40F20003C2F200030A221A7028
:101A9000F3E770B540F28123C0F20003984741F6A6
:101AA0000503C0F20003984745F6C421C0F20001C7
:101AB00040F24413C2F200031868142240F63F3388
:101AC000C0F20003984741F66903C0F2000398474B
:101AD000D02041F63103C0F20003984760280ED1B0
:101AE00045F6DC21C0F2000140F24413C2F20003CB
:101AF0001868142240F63F33C0F200039847C8200C
:101B000040F64923C0F20003984740F2BB33C0F2CD
:101B100000039847012040F2F743C0F200039847C2
:101B2000012040F21F53C0F200039847012040F209
:101B30004553C0F200039847012040F25753C0F2CA
:101B40000003984740F29354C0F20004A0470028D5
:101B5000FCD140F20D33C0F20003984741F6A703D1
:101B6000C0F20003984740F29354C0F2000440F2E0
:101B70000D36C0F2000641F6F305C0F20005A0479D
:101B80000028FCD1B047A84741F6A703C0F20003E4
:101B9000984741F2883040F64923C0F20003984745
:101BA000EDE70000F0B5C6464E024702760A7B0A12
:101BB0004400C50FF7004800984600B5240E2A00DF
:101BC000DB00000EC90FBC468D4267D0221A002AE6
:101BD00000DCA5E000283AD1002F00D193E0511E8F
:101BE000002900D0BBE00124DB1B5A0146D59B0134
:101BF0009E09300001F0A4FE05388640844200DDD5
:101C00009CE0041B320020200134E240041BA6406B
:101C100033005E1EB341002413435A0704D00F2241
:101C20001A40042A00D004335A0129D50134FF2C6C
:101C300000D180E02A009B015B0AE4B25B02E4056C
:101C4000580AD2072043104304BC9046F0BDFF2C35
:101C5000E3D080213800C904084384461B2A00DDF4
:101C600081E020206146D140821A60469040020007
:101C7000501E82410A439B1A5A01B8D45A07CED14A
:101C8000DE082A00FF2C3AD1002E00D1ACE08023E0
:101C9000DB0333435B025B0AFF24CFE7211A0029F1
:101CA00051DD90B3FF2CB8D080203E00C004064325
:101CB000B4461B2900DDA9E020266046C840711A01
:101CC00066468E4031004E1EB14101435B185901FA
:101CD000D4D50134FF2C00D186E0012275491A4089
:101CE0005B080B40134398E7002C00D0A3E0002BC7
:101CF00000D0B1E03B00002F60D10026002273022B
:101D00005B0AE4B29AE7140087E7002F4BD0481E25
:101D1000002855D1634401245A01AFD50224DCE7E1
:101D200022BB621CD2B2012ADEDDDE1B720134D579
:101D3000FE1A0D005DE72A0000237FE733005E4AAC
:101D4000241A134069E7002962D1611CC8B2012836
:101D50004DDDFF2948D063445B080C005DE7FF2A96
:101D600040D00A007AE701229B1A85E7ECB1FF28F0
:101D700022D08024E404524223431B2A00DD86E063
:101D80001C002025D440AA1A93405A1E9341234395
:101D900062460400D31A0D0027E7002E00D028E782
:101DA00000220024ABE70C0037E7002B49D0D243D8
:101DB000002AEDD0FF28E0D16346FF240D002CE778
:101DC000FF290FD0010074E7002B5DD0FF24002F06
:101DD00000D122E780224146D203114202D01642AE
:101DE00000D13B00FF2418E7FF24002326E7002C46
:101DF000EAD1002B54D0002F00D10EE763445A01E2
:101E000000D43BE72C4A0C00134006E701215DE7B4
:101E1000DCB9F3B3C94359B1FF2835D01B2947DCDE
:101E20001C002026CC40711A8B40591E8B41234345
:101E3000634404004BE7C3B93B006FB30D00FF24BC
:101E4000EBE63B0004000D00E7E6FF281CD08024F1
:101E5000E40449422343E1E7002F00D1DDE6DE1B25
:101E600072011FD5FB1A0D00D7E6FF24002F00D109
:101E7000D3E680224046D2031042B3D01642B1D1FD
:101E80003B000D00FF24C8E66346FF24C5E601239E
:101E90007EE73B000400C0E680260022F603F6E65B
:101EA0003B00BAE63300002E00D0E7E6002226E72A
:101EB0000123BDE7FFFFFF7DFFFFFFFBF0B55746A6
:101EC0004E46DE464546E0B543004402C60F1B0EB3
:101ED00083B00F1C640AB246002B54D0FF2B28D0CD
:101EE0008022E400D20414437F225242904640F202
:101EF000000940F2000B984478007D02FB0F000EB1
:101F00006D0A009328B3FF2845D080230021ED00FF
:101F1000DB041D437F384746381A4F460F43BF0046
:101F2000B9463300009A874F53404A46BA58019346
:101F30009746002C4DD178007D02FB0F000E40F239
:101F4000080940F2FF0840F2020B6D0A00930028D6
:101F5000D9D125BB002001213300009A7A4F53408C
:101F60004246101A4A460A439200BA581D00974644
:101F7000009B2C009A468B465B46022B30D1534681
:101F8000FF21002437E0B4B940F2040940F2000810
:101F900040F2010BB0E7FF205DB90221DCE7280029
:101FA00001F0CEFC431F9D4076235B42181A0021AE
:101FB000B1E70321AFE7200001F0C2FC431F9C40C2
:101FC00076235B421B1A984640F2000940F2000B50
:101FD00092E740F20C0940F2FF0840F2030B8BE756
:101FE000032B00D1A5E05546012B00D081E0012351
:101FF000002100242B406402C905600ADB07084366
:10200000184303B03CBC90469946A246AB46F0BD8F
:1020100080240023E403FF21EDE7FF210024EAE709
:102020000123591A1B2966DD019A1340002100245F
:10203000E1E78023DB031C4238D01D4251D01C4312
:102040006402640A3300FF21D5E763016C01A342F7
:102050003BD21B260021013801251F0049005B00EF
:10206000002F01DB9C4201D81B1B2943013E002E9F
:10207000F3D11C00631E9C410C4301007F310029F9
:10208000CEDD630704D00F232340042B00D004349B
:10209000230103D501002D4B80311C40FE290DDDAD
:1020A0000123019AFF2113400024A4E78023DB03CE
:1020B0001C436402640A3300FF219CE70123019A58
:1020C000A401640AC9B2134095E71B1B1A2601211B
:1020D000C2E7009B8B469A4600244DE76302E5D594
:1020E00000258024E4032C436402640A009BFF2142
:1020F00081E70195C1E723002020CB40411A8C40A5
:10210000611E8C411C43630704D00F232340042B22
:1021100000D00434630105D50123019A0121134045
:10212000002468E70123019AA401640A13400021F6
:1021300061E78023DB031C436402640A5346FF21EA
:1021400059E7C046F45A0000345B0000FFFFFFF778
:10215000F0B546464F46D6464302C0B546005B0A38
:10216000360E88469946C40F002E51D0FF2E23D03C
:102170008020DB00C00418438146002740F2000A9B
:102180007F3E434658005D02000EDB0F6D0A984605
:1021900008B3FF2842D0EB008025ED041D43002347
:1021A0007F38414636186140701C1F430F2F69D895
:1021B0007B4ABF00D2599746002B48D1434658006E
:1021C0005D02000EDB0F0827FF2640F2020A6D0AAF
:1021D00098460028DDD1002D3ED100200123E0E704
:1021E0004146022B20D0032B00D1CFE0012B00D0A1
:1021F000ADE0002200201940CCB24002D205400AD6
:10220000E407104320431CBC90469946A246F0BD0B
:102210007BB90427002640F2010AB2E7FF2002231F
:10222000002DBED00323BCE70124FF220C40002078
:10223000E3E7180001F084FB4A46431F76269A40E4
:1022400076429146361A002740F2000A99E70C2799
:10225000FF2640F2030A94E7280001F071FB431FB8
:102260009D4076235B42181A00239AE780200024C1
:10227000C003FF22C1E74D465346B2E74D46210059
:102280005346AEE74B461B0C98464A464FF6FF7343
:102290001A402B401C0054432F0CA446454644468C
:1022A0007D43574362466343120CFF18D219934291
:1022B00003D980235B029846454467464FF6FF7377
:1022C00014043B40E418A3015F1EBB41120CA40E92
:1022D00055191C43AD0125432B0104D501230600EC
:1022E0006A081D40154332007F32002A27DD6B0744
:1022F00004D00F232B40042B00D004352B0103D531
:102300003200284B80321D40FE2A8DDC0124A801BA
:10231000400AD2B20C4070E780204B46C003034213
:1023200008D0054205D128434002400A4446FF2216
:1023300063E74B4618434002400AFF225DE7012451
:10234000A31A1B2B05DD0C400022002055E70600D8
:10235000C9E72A002020DA40C31A9D402B005D1EE9
:10236000AB4113435A0704D00F221A40042A00D06D
:1023700004335A0104D5012401220C4000203CE71B
:1023800001249B01580A0C40002236E780200124DA
:10239000C00328434002400A0C40FF222DE7C046FC
:1023A000745B0000FFFFFFF770B5002830D0C31743
:1023B000C4185C40C50F200001F0C2FA9E231B1A0E
:1023C000962B0DDC9622D21A94402A006402640AED
:1023D000DBB26402DB05600AD2071843104370BD0C
:1023E000992B19DC9922D21A002A29DD9440220067
:1023F000144C1440510704D00F210A40042A00D085
:102400000434620113D4A401640ADBB22A00E0E7B9
:10241000002200230024DCE705222100121AD1400B
:10242000B922D21A9440621E94410C43DAE7054B5C
:102430002A001C409F23A4011B1A640ADBB2C8E7D0
:102440002200D5E7FFFFFFFB10B5040038B301F011
:1024500077FA9E231B1A962B0ADC9622D21A9440F6
:102460006402640ADBB26402DB05600A184310BD33
:10247000992B17DC9922D21A002A27DD94402200DA
:10248000134C1440510704D00F210A40042A00D0F5
:102490000434620112D4A401640ADBB2E3E700232E
:1024A0000024E0E7B9222100D21A91400A00511E0F
:1024B0008A410521091ACC401443DBE7044B1C4038
:1024C0009F23A4011B1A640ADBB2CCE72200D7E7E2
:1024D000FFFFFFFBF0B557464546DE464E46E0B5EA
:1024E0004C001E000F03CB0F640D85B0834692464F
:1024F00005003F0B9846002C53D040F2FF739C42DE
:1025000035D08023420F1B04FF0013433B43994601
:10251000714B00279C460023C5006444029333039B
:102520001B0B9B4673005B0DF60F50460196002B6C
:1025300063D040F2FF72934255D05A46D1008022B8
:10254000400F120402430A43634993465246581807
:102550000021D2004346201A73409C4600900F434E
:102560000F2F00D9BEE05D48BF00C0598746030069
:102570003B439946002B75D102230025082740F2E2
:10258000FF740293CBE74346CB462A00029901939E
:10259000022900D0BDE1019B40F2FF760024002516
:1025A0006DE003003B439946002B55D0002F00D12E
:1025B000C8E1380001F0C4F903000B3B1C2B00DD1F
:1025C000B9E11D22D31A5A460100DA4008398F407A
:1025D00013005D463B4399468D400023404C002745
:1025E000241A02939BE752465B461A437ABB40F299
:1025F000000B40F2FF700221ACE75A4602430AB3D7
:102600005B46002B00D1A8E1584601F099F9030080
:102610000B3B1C2B00DD99E102005946083A914022
:1026200040F21D0C8B466146CB1A5146D9400B0037
:1026300059460B439B46534693401A00284B0021B2
:10264000181A87E740F2000B0020012182E752466A
:1026500040F2FF7003217DE70123002504270024B9
:1026600002935CE70323B94640F2FF740C27029300
:1026700055E7802400230025240340F2FF76002143
:1026800028004FF6FF752403220B0C0D240514437C
:10269000C8F20F0532052C4022435200DB075208D6
:1026A0001A43110005B03CBC90469946A246AB4681
:1026B000F0BD012252420123991B382900DCBCE104
:1026C00062461340002600240025D8E740F2FF763A
:1026D00000240025D3E7C04601FCFFFFB45B0000E7
:1026E0000DFCFFFFD94500D93EE100D139E1009B47
:1026F0002F00013B009300254B465946100E09025E
:102700000143080C16024FF6FF72B3FBF0F80A40C3
:102710001400019242466243444644431B1B1B047F
:1027200099464C463B0C23439A420FD901246442FC
:1027300044445B18A146994200D93DE19A4200D831
:102740003AE102246442A1465B18C8449B1AB3FBD9
:10275000F0FB5A46019C4FF6FF7A62435C464443C5
:102760001B1B54461B043C4023439A420DD95C4634
:102770005B18671E994200D920E19A4200D81DE1FA
:1027800002246442A1465B18CB449A1A43465C4635
:102790004FF6FF781B041C43330C9A464346270C24
:1027A0002340A3464446344003945C430294039C74
:1027B0007C43A146544663436743029C4B44240C2C
:1027C000A0464344994503D980246402A046474467
:1027D0001C0CA146B9444FF6FF77029C1B0427400E
:1027E000DB194A4500D2CBE000D1C5E04C46171BAF
:1027F000EB1A9D42AD416D427F1BB94200D107E10A
:10280000B7FBF0F20400019D544355433F1B3F04C6
:102810001C0C2743BD420AD9541E7F18A046B9425A
:1028200000D9FFE0BD4200D8FCE0023A7F187F1BD0
:10283000B7FBF0F568433F1A4FF6FF70019C3F0469
:102840006C430340A0463B439C4209D95B18681E79
:10285000994200D9E8E09C4200D8E5E0023D5B18CF
:10286000404612042A43039C150C1B1A4FF6FF70B6
:1028700027006C43A04654461040474365436043DD
:102880003C0CA14640444844804503D9802464025E
:10289000A0464544040CA04645444FF6FF78444604
:1028A00000043C400019AB4200D299E000D194E012
:1028B00001231A4340F2FF330099CE18002E00DCAA
:1028C000F9E6530700D097E05B46DB0107D5594690
:1028D000934B194040F200438B460099CE1840F2CA
:1028E000FE739E426CDD0123624640F2FF76134088
:1028F00000240025C3E680244B462403234215D040
:102900005B46234211D11C432403240B33001500E2
:10291000B3E6032900D1F9E0019B012900D08AE048
:102920000B40002600240025A9E64B461C43240347
:10293000240B4346A1E603005A46283B9A40002553
:1029400091464AE600F0FCFF203035E6030052468F
:10295000283B9A409346002270E600F0F1FF2030B9
:1029600055E6954200D2C2E649464B46CF07690874
:102970005B080F43ED07C0E600279D4200D337E711
:10298000AD19B542BF4101247F4264427F185C44C7
:10299000BA18A046914207D2914572D800D1AAE058
:1029A0004C46C346171B23E79142F9D1AE42F3D9F7
:1029B0004A46A3468F1A1BE7C846C7E6BB46E4E66D
:1029C0005B46D2085D07154340F2FF725C02164079
:1029D00001236246240B134051E6002800D169E729
:1029E000CB18571E994221D93A00AB4200D05FE77D
:1029F000B04200D05CE75DE70F231340042B00D109
:102A000062E713001A1D9A429B415B429B445BE7BD
:102A100040F2FF33009AD618002E00DC49E601236D
:102A20005B42EFE7424602E7050019E79D4235D8D1
:102A300066D03A003CE79C463CE71F2937DC202360
:102A4000140058465B1A9A409840CC40531E9A4155
:102A500020435C461043CC40430709D00F2303407A
:102A6000042B05D00200101D90429B415B42E418EC
:102A7000230235D501236246012613400024002598
:102A8000FDE5AD19B542BF4102247F4264427F1883
:102A9000BF18A0464A46C344BF1AA9E6971E720053
:102AA000B242B641764271185B1816009CE71F23AC
:102AB0005D465B429E1BF540202925D05F33591AA5
:102AC0005B468B401A43531E9A412A430725154003
:102AD00000244DB10F23002413401000042BC2D159
:102AE000020065076402240BD208154301236246E5
:102AF00000261340C3E5AB42C3D8C346002777E6A0
:102B00008642CBD33A0073E70023DBE780245B46A1
:102B100024031C432403240B019B1500ADE5C04690
:102B2000FFFFFFFEF0B54E46DE4657464546E0B590
:102B300099464E000B031B0B760D87B0040092469E
:102B40009B46CD0F002E00D176E040F2FF739E42EF
:102B50003AD05B46DA008023410F1B040B4313433A
:102B60009B46714B40F200089C460023C700664418
:102B700002934B465A001C03520DDB0F5046240BA8
:102B80009946002A00D182E040F2FF739A4200D1B8
:102B900075E08023410F1B040B436349E4001C4391
:102BA000C30050180022494636184046694000913B
:102BB000711C019110430F2800D9BBE080008046B2
:102BC00041465A4841588F465F460743002F00D080
:102BD00092E0022340F2000B40F2080840F2FF7638
:102BE0000293C6E749460091022A6CD0032A00D11D
:102BF00014E2012A00D06CE1009900241140002762
:102C00000022CDB2002112030B0D120B1B05134342
:102C10004FF6FF72C8F20F02134024051C436400F4
:102C2000ED0764082C433800210007B03CBC9046F7
:102C30009946A246AB46F0BD1F000743002F53D074
:102C4000002B00D192E1180000F07AFE03000B3B4C
:102C50001C2B00DD84E11D22D31A220001005E46F8
:102C6000DA4008398E4013008C4033439B462700DE
:102C700000232F4E40F20008361A029379E753469C
:102C8000234363BB002440F2FF7002228BE75346CC
:102C9000234303B3002C00D15EE1200000F050FE7E
:102CA00003000B3B1C2B00DD50E11D21CB1A5146CC
:102CB0000200D9405346083A944093400C431C4AC2
:102CC000101A00226FE70125009B40F2FF741D409F
:102CD0000022002796E700240020012263E75346E4
:102CE00040F2FF7003225EE7012340F2000B40F246
:102CF0000408002602933CE70323070040F20C0877
:102D000040F2FF76029334E7802200250027120369
:102D100040F2FF7476E75C463B00029A64E75C464B
:102D20003B000095029A5FE701FCFFFFF45B0000A7
:102D30000DFCFFFF4FF6FF753A0C94461A0C2B4022
:102D400019002F407943894661464846594315008A
:102D500088466146000C82467D43514345445544B4
:102D60000291A84504D98020400280464144029146
:102D70004FF6FF78290C4046039149462D04014047
:102D800089462900250C49440440049121007943D7
:102D90008846614661438946614669438C4641469F
:102DA000090C8A466F434F445744B94503D98021E3
:102DB00049028946CC44390C61444FF6FF7C0591A9
:102DC000604641460140884603993F04474488468F
:102DD000B844414603915946090C88465846614615
:102DE00001408C465943894641464B4351438A46EC
:102DF00061464A434946090C8B46D2185A449342CD
:102E000003D980235B029B46DA44130C53444FF6EC
:102E1000FF7A4846514601408946414661438A4609
:102E200041466943120491448846624661466243C2
:102E30004D43140C55446419A24503D9802149021D
:102E40008C46E0440398029984466144B942BF41EC
:102E50004FF6FF7C0D0079428A460598614684460C
:102E6000270411407A1862444D4494462F004D4582
:102E7000AD41D4446D429B4682429241D445894142
:102E8000A946E34452424942D944240C0A43121948
:102E9000A945AD419B45A4414B466D4264422C433C
:102EA00014194444DB0D64021C43049B7D021D4342
:102EB0002B005D1EAB41FF0D1F434B465B023B43A6
:102EC000E20157D501275A083B401343E7073B432C
:102ED000640840F2FF3201998E18002E4CDD5A072B
:102EE00009D00F221A40042A05D01A1D9A429B418C
:102EF0005B42E4181300E20105D54D4A01991440E4
:102F000040F200428E1840F2FE72964200DDDAE690
:102F100067076402220B012540F2FF74DB081F43A0
:102F2000009B34401D406DE6802259461203114239
:102F300007D0144205D122431203120B4D461F0045
:102F4000E6E65B461A431203120BE1E60300544621
:102F5000283B9C400023B2E600F0F2FC20309FE6C4
:102F60000300283B9C400027A34681E600F0E8FCD4
:102F700020306BE60196ACE70125AA1B382A05DD57
:102F8000009B00241D40002200273BE61F2A20DC76
:102F900020252000AD1A1E00AB40A840D6405D1E83
:102FA000AB4130431843D440430709D00F230340BB
:102FB000042B05D00300181D98429B415B42E41886
:102FC00023021ED50125009B01241D40002200275D
:102FD00018E61F2027004042861BF740202A1BD0FE
:102FE0005F30821A944023435C1EA3413B43072772
:102FF0001F4000224FB10F2200241A401800042A5B
:10300000D9D1030067076402220B0125DB081F43A7
:10301000009B00241D40F5E50024E4E78022012503
:103020001203224300991203120B0D401F006FE69A
:10303000FFFFFFFEF0B54F464646D6460C03C0B52F
:10304000CD0F4F00610A440F0C43C1005800400DE2
:10305000844640F2FF798A460E001903500F490A50
:103060007F0DA846DB0F0143D200CC4500D1DFE045
:1030700040F2010948464340AB4200D1AAE0604615
:103080003D1A002D00DC0FE188B90B001343002B23
:1030900000D1E0E06B1E002B00D060E153469E1A89
:1030A000B2458041641A4042241A01271FE040F2D1
:1030B000FF739F4248D080231B041943382D00DD45
:1030C0002DE11F2D00DD60E120230E005B1B1000B1
:1030D0009A409E40E840531E9A41E94006431643F9
:1030E00053469E1B611AB245A44164420C1B230245
:1030F00000D4CEE06402650A002D00D1F3E0280080
:1031000000F01EFC0300083B1F2B00DDF4E0202232
:103110003400D21A9D40D4409E4025439F4200DD9A
:10312000F1E0DF1B7B1C1F2B00DD1FE120223000A4
:10313000D21A290096402C009140D840721E964128
:10314000DC40002701430E43730709D00F233340AF
:10315000042B05D0331DB342B6417642A4191E009C
:10316000230228D540F2FF7301379F4200D1CEE001
:103170001F4001254346C14AF60814406207640215
:103180001643240B1D4000214FF6FF722403230B2E
:103190000C0D24051C43C8F20F023B0514402343C9
:1031A0005B00ED075B082B43300019001CBC904608
:1031B0009946A246F0BD012543466207F60816432C
:1031C000E4081D4040F2FF739F4237D02403240BD4
:1031D0001F40D8E76346FB1A002B00DCA5E06046E1
:1031E000D8B340F2FF7C6745AED080263604314329
:1031F000382B00DC0AE10A4316000021721E9641BA
:10320000564456458041091944420C19230240D5C1
:1032100040F2FF7301379F4200D15EE10122974BDC
:103220001C40730816401E43E207164364088BE7F0
:1032300008001043002800D01EE719E7230033439D
:10324000002B00D1DFE180231B031C432403240B4C
:1032500040F2FF7797E72F0076E708001043002839
:1032600000D1D1E0581E002800D0F3E0524452456E
:10327000804164184042241816000127230208D513
:103280000227CBE764462C43002C00D1DCE12C0064
:103290006646730700D059E76307F6081E43012509
:1032A0004346E4081D408DE7002D7DD140F2FF75B7
:1032B000781C0540012D00DCFEE05046801A824556
:1032C000B641651A7642AD1B8446280200D491E0CF
:1032D0005046161AB24292410C1B5542651B984645
:1032E000002D00D00BE7300000F02AFB2030030057
:1032F000083B1F2B00DC0AE73500283885400026F4
:103300009F4200DC0DE75D4CFF1A2C401CE70125B5
:10331000434640F2FF771D400024002633E70A436E
:1033200016000021721E9641DAE6002B00D0EAE07A
:1033300040F2FF7C60467B1C1840012800DC9FE0C7
:10334000634500D1C7E05244524580416418404271
:103350002418E6075208164364081F00F4E640F2FA
:10336000FF7C654500D182E01D00A7E629001F3FD4
:10337000F940202B7ED04022D31A9D402E43751E4B
:10338000AE4100240E43002783E72B000E00203BB4
:10339000DE40202D70D040235D1BA9400A43511E02
:1033A0008A41002116439BE6002F40D040F2FF7671
:1033B000B44549D0802636046D423443382D00DDB3
:1033C000C5E01F2D00DD42E12027260050467F1B6F
:1033D000BE40E84006435046B840471EB841EC4066
:1033E0003043161AB24292410C1B5242A41A67464D
:1033F00098467CE664462C436646002C00D07BE66B
:10340000002500270026DDE61F009DE61F2B67DC58
:103410002026F01A0E00844686401000D84006434D
:1034200060468240501E8241D9401643E8E626009D
:1034300050460643002E00D184E0ED43002DD0D04D
:1034400040F2FF76B445B9D10C00160040F2FF7788
:10345000984679E640F2FF794B4508D00300C7E66D
:1034600040F2FF76B44500D080E00C00160040F238
:10347000FF7769E6002581E700218FE7FFFF7FFFE7
:10348000230050460343002F00D0C1E0002B00D1A1
:1034900001E10B001343002B00D155E65244524585
:1034A00080416418404224181600230200D4F0E63C
:1034B000854B01371C4047E6250050460543A7BB16
:1034C000002D68D10C001443002C00D1BCE00C008E
:1034D0001600984638E640F2FF770024002671E691
:1034E0001E000800203EF0400600202B00D1A9E07D
:1034F00040F2400C6046C31A99400A43511E8A416B
:10350000002116437CE647BB260050460643002EAA
:1035100000D1ADE0DB43002BA2D186189642924148
:1035200064185242A418674670E6002D4CD108007A
:103530001043002800D19FE00C001600984640F28E
:10354000FF7701E60C00160067469846FCE55046FA
:103550002043441EA041002443E740F2FF76B445D7
:1035600000D182E7802636045B423443382B00DDED
:1035700089E01F2B00DD91E0202726005046FF1A2E
:10358000BE40D84006435046B840471EB8410643A7
:10359000DC40B618C2E70D001543002D00D1D3E57D
:1035A0005046801A8245B641651A7642AD1B844664
:1035B000280200D466E65046161AB24292410C1B0D
:1035C0005242A41A9846BFE50D00154340F2FF771A
:1035D000002D00D1B8E550466607C008064380209C
:1035E000E4080003044207D0CD08054204D12C00B2
:1035F0009846D60849070E43730FE4001C43F600B3
:1036000040F2FF77A0E5002640F2FF770024BAE5FC
:10361000002B00D129E70B00134340F2FF77002B6A
:1036200000D191E5C008660706438020E408000346
:103630000442E1D0CB080342DED1D60849070E434D
:103640001C00D9E7002158E700250026BAE52E0026
:103650002000203EF0400600202D31D040277D1B69
:10366000AC4050462043441EA04100243043B8E6FD
:103670000C001600674667E580240025240340F20D
:10368000FF7700269EE5504620430600701E8641C7
:103690000024B61842E70C00160055E51E00200075
:1036A000203EF0400600202B0CD04027FB1A9C4007
:1036B00050462043441EA04106430024B6182DE77F
:1036C0000024CEE70024F3E7FFFF7FFF30B540F290
:1036D000FE350A034B00120B5B0DC90F0024AB42F1
:1036E00012DD40F21D44A34210DC802440F2334539
:1036F00064032243ED1A1F2D0BDD40F21340C31A61
:10370000DA40544201B91400200030BD044BCC18FB
:10371000FAE7044CE840A44663449A400243F0E7C9
:10372000FFFFFF7FEDFBFFFF70B5002838D0C31708
:10373000C4185C40C50F200000F002F940F21E439F
:1037400040F233421B1AD21A1F2A1DDD40F21342E7
:10375000D21A944040F2FF72134000222403240B3B
:103760000021100024030A0D240B120522434FF6FA
:10377000FF74C8F20F0422401B0513435B00ED07E2
:103780005B082B43190070BD210091400A000B21FA
:10379000081AC44040F2FF712403240B0B40DFE7FA
:1037A0000025002300240022DAE7C04610B50400FB
:1037B000002830D000F0C4F840F21E4340F23342FB
:1037C0001B1AD21A1F2A1ADD40F21342D21A944051
:1037D00040F2FF72134000222403240B002110004A
:1037E00024030A0D240B120522434FF6FF74C8F27E
:1037F0000F0422401B0513435B00590810BD210034
:1038000091400A000B21081AC44040F2FF712403C2
:10381000240B0B40E2E7002300240022DEE7C04631
:103820004100090E4B1C4202DBB270B5560AC40FB0
:10383000012B19DD130B40F2803276078D18002121
:103840000A0D12051A4340F2FF732B404FF6FF7525
:10385000C8F20F052A401B0513435B00E4075B0811
:1038600023433000190070BDA9B90EB3300000F039
:1038700067F80A281FDC0B2332001B1ADA4003000A
:1038800015339E4040F2893540F2FF7112032D1A24
:10389000130B0D40D3E73EB18023120B1B037607B9
:1038A000134340F2FF75CAE740F2FF750023C6E7F5
:1038B00000250023C3E7030032000B3B9A4000269B
:1038C000E0E7C0468446101C62468C46191C6346DD
:1038D00000E0C0461FB500F0EFF8002801D4002139
:1038E000C8421FBD10B500F049F84042013010BD7C
:1038F00010B500F0E1F8002801DB002010BD012028
:1039000010BDC04610B500F0D7F8002801DD00203A
:1039100010BD012010BDC04610B500F06BF80028A6
:1039200001DC002010BD012010BDC04610B500F024
:1039300061F8002801DA002010BD012010BDC0464A
:103940001C2101231B04984201D3000C10391B0ACF
:10395000984201D3000A08391B09984201D3000993
:10396000043902A2105C40187047C04604030202EA
:10397000010101010000000000000000F0B54F4609
:103980004646D6465C00C0B51F03DB0F9A4640F2A0
:10399000FF730E034D0084468046360B6D0DC90F34
:1039A00091463F0B640D01209D4208D09C4201D0FE
:1039B000A5420DD01CBC90469946A246F0BD634678
:1039C0003343002BF6D1AC42F4D13A43002AF1D173
:1039D0000120BE42EED1C845ECD1514507D0002DA3
:1039E000E8D163461E433000461EB041E2E70020A6
:1039F000E0E7C046F0B54E464546DE46574640F243
:103A0000FF79E0B51F033D0B0E034C00AB465D0094
:103A10008446360B640DC90F90466D0DDB0F4C4587
:103A20002ED040F2FF794D451DD06CB930430700D0
:103A3000814678427841C0B2E5B95F463A43CAB997
:103A40004B4600204BB105E015B9584602430AB178
:103A500099421AD04842012108433CBC90469946FD
:103A6000A246AB46F0BD5F461743002FDDD00220D3
:103A70004042F2E70028EBD00120013B1843ECE77D
:103A800037000743002FCCD0F1E7AC42E2DC03DA89
:103A9000481E01210843E0E75E45DBD806D0002040
:103AA0005E45DAD20123481E1843D6E7C445D1D873
:103AB0000020C445F6D3D0E7F0B557464E464546FC
:103AC000DE465C00E0B51F03DB0F9A4640F2FF7351
:103AD0000E034D00C90F8046360B6D0D8B46914687
:103AE0003F0B640D9D4223D040F2FF739C4219D0DE
:103AF00085B9304343424341DBB2FCB15BB153462D
:103B00000120013B034318003CBC90469946A24665
:103B1000AB46F0BDCCB1D3451BD05B465942012327
:103B20000B43F0E73900114302230029EBD1DFE713
:103B30003100014302230029E5D1D5E73A43002AA9
:103B4000DCD100230028DED0E7E73A43002AE2D1A7
:103B5000E3E7A542E1DC05DBBE42DED807D0002367
:103B6000BE42D0D25946012301390B43CBE7C845A9
:103B7000D3D80023C845F5D3C5E7C046F0B51C002F
:103B800085B000231500002206000F00FFF7B0FEED
:103B9000230018B12D23013D2370631C0022094925
:103BA000039267320292019300953B00320008684D
:103BB00000F0FEF8431E984140420440200005B04A
:103BC000F0BDC0460400002070B500250E4B0F4C20
:103BD000E41AA410A54209D1002502F0F7F80C4C14
:103BE0000C4BE41AA410A54207D170BD064AAB00E5
:103BF0009B181B6898470135ECE7064AAB009B18F9
:103C00001B6898470135EEE7D85D0000D85D0000DD
:103C1000DC5D0000D85D0000931E10B50C00222B67
:103C200004D900231C000B70200010BD0A2A09D102
:103C3000002807DA2D230B7001214042611800F0A3
:103C40000FF8F1E70021F9E710B5FFF7E5FF10BD28
:103C500003008218934200D1704719700133F9E7CD
:103C6000F0B516008BB0252205000C0068461449FB
:103C700000F060F9B11E00236A46222905D923709D
:103C80001C0020000BB0F0BD6346591CB5FBF6F7D5
:103C900060188C46310079436D1A515D451E2970BC
:103CA0003D00002FF0D122000770111B8B42E8DD90
:103CB0001178E05C1070E1540132013BF5E7C04639
:103CC000345C0000F0B58BB00E0010A910C90D785F
:103CD00008A9049107A9039109A90291611C019106
:103CE0000221009100F01CFD42F20F73099F9F42D8
:103CF00005D10100300000F089FC0BB0F0BD129A34
:103D000003782243411C337042B91400731C0878B5
:103D10001A0038B9672D0CD1652514E02E22B31C8A
:103D20007270F4E7002CF5DD18700131013C0133AD
:103D3000EDE7472D36D02100302000292EDCE3436B
:103D4000DB171C4012197B1E901C15700993010093
:103D5000002B29DA2D2353702C3BDF1B0997099C7C
:103D6000632C0BDD642294FBF2F2130030330370FA
:103D700064235B4253431B190993411C0A2209988F
:103D800090FBF2F2130030330B700A235B42534373
:103D90001B1830334B7000238B70AEE7187001395D
:103DA0000133CAE74525CEE72B235370D7E7000040
:103DB000F0B515001C008DB014AB1B7806000793FE
:103DC0000022002328002100139FFFF791FD10B16E
:103DD00080231B06E4180022002328002100FFF79F
:103DE00081FD30B130233B7000237B7038000DB073
:103DF000F0BD4D4A4D4B28002100FFF783FD68B10F
:103E0000159B2A000293079B39000193129B3000F7
:103E1000013B00932300FFF755FFE7E7129800F0FE
:103E20005FFB02000B0028002100FFF77FFD002848
:103E3000E6D100223E4B28002100FFF759FD0AABD6
:103E4000039309AB0293129B0BAA019304920323E1
:103E500000B9022300932A002300300000F060FC28
:103E600042F20F73099A9A4211D03A00129B0478D9
:103E70009B1A1100FB18099DA4B940F2010CED1A20
:103E8000EE181100002E35DC74B109960CE001002B
:103E9000380000F0BBFBA9E7013D14700130099523
:103EA0000132E3E7002DF7DC159C0CB90478F4B17E
:103EB000974202D13022791C3A702E2230250A70A6
:103EC00001264A1C0021099C002C1BDB01B109942E
:103ED000047811000CB1002B1CDC159838B11800C7
:103EE000302400281BDCDA43D2171340C918002302
:103EF0000B707BE7002BC7DD3021013B117064465E
:103F00000132BDE7002BE1DD15700134013B0132C8
:103F10003100D9E714700130013B0132D8E7147049
:103F200001380132DDE7C0462D431CEBE2361A3F73
:103F30000000F03F002310B59A4200D110BDCC5CC8
:103F4000C4540133F8E770B5466A04000D003EB969
:103F5000102001F0C1F96062466086600660C660AC
:103F6000666AF3688BB1636AAA00DB689B181868FD
:103F7000B8B901210E00AE40721D9200200000F081
:103F8000C9FA60B1456086600DE02122042120005D
:103F900000F0C0FA636AF060DB68002BE3D1002018
:103FA00070BD02681A6000230361C360F8E770B552
:103FB000446A06000D003CB9102001F08DF97062D2
:103FC000446084600460C4603DB1736A6A68DB6801
:103FD00092009B181A682A601D6070BD40F2140C94
:103FE000F7B507000C001E0000200D698C446346E5
:103FF00019881B6851431B0C534389190E0C9B19DC
:1040000089B21E0C1B045B186146013008C18C4646
:104010008542ECDCDEB1A3689D4212DB63683800A8
:10402000591CFFF790FF2100236901909A1C920010
:104030000C310C30FFF77EFF21003800FFF7B7FF8F
:10404000019C2B1D9B00E31801355E60256120005B
:10405000FEBD020C030000200AB91B0410301A0E2A
:104060000AB908301B021A0F0AB904301B019A0F53
:104070000AB902309B00002B03DB01305B0000D447
:10408000202070470722036810B51A4001006AB16A
:1040900001240020234205D10230034203D0E34033
:1040A00020000B6010BD9B080B60FBE79CB210006A
:1040B0000CB910201B0CDAB20AB908301B0A1A0717
:1040C00001D104301B099A0701D102309B08DA079D
:1040D000EAD45B080BB10130E6E72020E2E710B537
:1040E0000C000121FFF72FFF01234461036110BD84
:1040F000F0B50B691500126989B00C00934201DA22
:104100002C000D0027692E69A268BB196168019314
:10411000934200DD0131FFF716FF030014330093D3
:10412000009ABB1994469B009C4413000022049003
:1041300063451CD32A001434BF00E3191432B600BF
:104140000593931902940693069B9A4211D3019BFF
:10415000002B06DD04235B429C4463461B68002B56
:1041600050D0049B019A18001A6109B0F0BD04C335
:10417000DEE71488F4B10026009D029F01CF079569
:1041800008CD039383B2634319006B46000C9B89EF
:104190006043CB1803999B19090C4118180C091896
:1041A0000E0C9BB209040B4307990B60059BBB42A5
:1041B000E4D82E6013681B0C0393F3B10026009B18
:1041C000029C1B68009807002188039D9BB26943ED
:1041D00020C82D0C49198E1931040B433B6008CCC3
:1041E00003991B0C4B437968360C89B25B1805990F
:1041F0009B191E0CA142E6D80360009B04320433D5
:104200000093A1E7019B013B0193A0E70323134027
:10421000F7B505000E00140043B1013B20499A0098
:10422000525800233100FFF7D9FE0600A310019376
:10423000A3B36C6A3CB9102001F04EF86862446088
:1042400084600460C4606F6ABC6844B940F2712144
:104250002800FFF744FF00230400B8600360012238
:10426000019B13420AD0310022002800FFF740FFD3
:10427000070031002800FFF79AFE3E00019B5B100B
:1042800001935BB1206838B9220021002800FFF7B4
:104290002FFF0023206003600400E0E73000FEBD34
:1042A000B05D0000F0B50D0017002B69541185B00A
:1042B000E3180293013301934968AB680390019AB4
:1042C000934233DB0398FFF73EFE00230200060013
:1042D00019001432A3422CDBE343DB171C401F21DF
:1042E0002B00A40014192A69143392000F409A1865
:1042F0001FB30131C91B8C4600211868B840014327
:104300006046216002CB0434C1409A42F5D8216056
:1043100011B1029B02330193019B0398013B33616E
:104320002900FFF744FE300005B0F0BD01315B000D
:10433000C5E7980011500133CCE702CB02C49A4282
:10434000FBD8E9E70A69036930B59B1A73B9920093
:104350001430143184188918043C043922680D681B
:10436000AA4205D0AA42924101231343180030BD4E
:10437000A042F1D3FAE7F0B50D0085B007001100B7
:1043800028001400FFF7DEFF060040B901003800E6
:10439000FFF7D9FD01234661036105B0F0BD01239C
:1043A0000193002804DB23002C001D00002301934F
:1043B00061683800FFF7C7FD2F00019B2669C360C5
:1043C0001434B300E31802932B6914379B00FB18D5
:1043D0000393030040F2000C143320CC04CF01926D
:1043E000AAB294446A46614692882D0C8A1A0199B1
:1043F000090C691A151449190D1492B209040A43DB
:104400001A60039AAC460433BA42E6D802991A00FD
:104410008C4204D3043A136873B10661BDE704CC3F
:1044200091B261440D14120C5219151489B2120480
:104430000A43AC4604C3E9E7013EEBE7F7B51D00CC
:104440000121089F1400FFF77EFD2B036D006D0D09
:1044500006001B0B0DBB01932CB368460094FFF7BD
:1044600011FE009CE8B1019B20211A00091A8A4024
:10447000C340224372610193019CB461631E9C415D
:1044800001343461C5B1134BED1835232D183D604F
:10449000181A099B18603000FEBD80225203134396
:1044A000D9E77461E8E701A8FFF7ECFD0124019B5F
:1044B000346173612030E5E7074BC018074B386063
:1044C000E3189B00F3185869FFF7C3FD6401201A35
:1044D000DFE7C046CDFBFFFFCEFBFFFFFFFFFF3F47
:1044E00010B50400172805DC074BC400E418206849
:1044F000616810BD002005490022054B013CFEF714
:1045000011FB002CF8D1F4E7E85C00000000F03F5C
:10451000000024404A4370B51100140000F008F870
:10452000050018B122000021FFF792FB280070BDA2
:10453000032370B5CD1C9D43083506000C2D1CD2FD
:104540000C25A9421BD8300000F0D0FE254A146883
:104550002100C1B9244C23681BB9300000F046F893
:1045600020602900300000F041F8431C2DD10C23BD
:104570003000336000F0BBFE03E0002DE1DA0C23D5
:104580003360002070BD0B685B1B1BD40B2B03D961
:104590000B60CC18256003E08C420FD16368136078
:1045A000300000F0A4FE200007220B30231D9043B2
:1045B000C31A002BE6D05A42E250E3E74B6863602F
:1045C0000C00EDE70C004968C3E70323C41C9C43BF
:1045D000A042DFD0211A300000F008F8431CD9D1E6
:1045E000C5E7C0468C00002090000020002370B575
:1045F000054C050008002360FCF7ABFB431C02D10F
:10460000236803B12B6070BD50010020031C0A78A1
:1046100001311A700133002AF9D17047F0B5060054
:104620000C69336989B0069100209C426BDC0B0059
:10463000013C1433A20003939B18049333001433FA
:104640009A180193049B15681B6802930133B5FB0C
:10465000F3F585B3039B019F05930290079005989E
:10466000029908C8059098B268434018010C8C461E
:104670001B0C6B436344190C0291398880B28C4641
:1046800007999BB26144081A3968090CCB1A0114C6
:104690008C466344191480B21B0418430791049B91
:1046A000059901C78B42DAD2136823B9019B043AFA
:1046B00093422AD3346106993000FFF743FE002865
:1046C00020DB002701980399013508C90288D71912
:1046D0009AB2BA1A07681B0C3F0CFB1A1714DB19A5
:1046E0001F1492B21B04134308C0049B8B42ECD2EC
:1046F000019AA300D3181A6822B9019A043B9A427E
:1047000008D33461280009B0F0BD1368002BD1D163
:10471000013CCBE71A68002AF3D1013CEDE7000029
:10472000F0B516001F00446A9DB00490259D0896C0
:10473000099744B9102000F0CFFD049B58624460F3
:1047400084600460C460049B5B6A196859B15A684C
:10475000012393404A608B600498FFF728FC0022F5
:10476000049B5B6A1A60099B002B1ADA01232B60F9
:104770007B005B080993099CB94B220019931A40EE
:104780009A421DD142F20F73249A1360089B23B9F9
:104790002403002C01D100F08AFD269B63B9B14BA4
:1047A00024E000232B60E6E7AF4B0A93AF4B269A39
:1047B00013600A981DB0F0BDAA4B0A93AC4BF6E704
:1047C000089E099F0022002330003900FFF78AF875
:1047D000050068B10123249A1360269B002B01D1A8
:1047E00000F062FDA34B269A1360013B0A93E0E7B9
:1047F0001AAB01931BAB009332003B000498FFF708
:104800001DFE63005B0D0590002B00D17EE03A0396
:10481000994C120B14432100984A300018959E18A9
:104820000022974BFEF706FC964A974BFEF77AF963
:10483000964A974B00F066FD040030000D00FEF72D
:1048400073FF944A944BFEF76DF902000B002000B1
:10485000290000F057FD04000D00FEF737FF00228D
:104860000390002320002900FFF742F870B103985D
:10487000FEF75AFF0B00020029002000FFF732F874
:10488000030058425841039B1B1A039301231693BC
:10489000039B162B0FD8D900804BC91808684968AC
:1048A000089A099BFFF738F800284CD0039B013B7E
:1048B0000393002316931A9B9E1B00230B93330034
:1048C000013B0D9304D501239B1B0B9300230D93F8
:1048D000039B002B39DB039A0D9B944663440D9395
:1048E00000230F920693229B0125092B00D990E00B
:1048F000052B02DD0025043B2293229B981E0328F2
:1049000000D990E000F0F4FC81832A751A9B1B9A71
:104910009E1840F23243F218202A0FDD203B0898FF
:10492000F318D84040239B1A9C402043FEF73EFFDB
:1049300001235B4C013E0919189371E72023089865
:104940009B1A9840F2E71690B5E70B9B039A9B1AC7
:104950000B935342069300230F93C4E701230E9356
:10496000239B002B63DD1F000C93049A546A0022E2
:10497000626004321100143199425DD96168049873
:10498000FFF7E1FA049B20605B6A1B680A930E2F15
:1049900000D9FDE0002D00D1FAE0089B099C14939A
:1049A0001594039B002B00DC7EE00F223B49134053
:1049B000DB005B185C681B6810931194039B022456
:1049C0001D11EB060AD514981599364B15401A6A35
:1049D0005B6AFDF77FFD089009910134314E85BB7C
:1049E000109A119B08980999FDF774FD0890099198
:1049F00074E00123239A0E939446039B63445F1C47
:104A00000C933B1EB1DC0123AFE70023A7E7002393
:104A1000F0E700230E952293013B00220C931F0028
:104A200013332392A1E701230E93023BF5E7012301
:104A30000C931F001A00F4E76168520001316160B5
:104A400098E701231D4208D010981199E4183268A4
:104A50007368FEF767F8109011916D100836BEE785
:104A60000000F07FC55D0000BC5D0000C45D00007B
:104A7000C85D0000CA5D00000000F03F01FCFFFFC0
:104A80000000F83F61436F63A787D23FB3C8608BD4
:104A9000288AC63FFB799F501344D33FE85C00004F
:104AA000000010FEC05C0000039B0224B3B1149808
:104AB00015995D420F23CA4A2B40DB009B181A68E8
:104AC0005B68FEF72FF8002308900991C54E2D1161
:104AD000002D00D08DE0002B00D087E7169B002B27
:104AE00000D192E0089A099B1092119310981199A5
:104AF0000022BD4BFEF7FCFE002800D185E0002F10
:104B000000D182E00C9B002B3EDD10981199039B95
:104B100000225E1EB54BFEF705F8089009910C9D2A
:104B200001342000FEF700FE089A099BFDF7FAFF0A
:104B30000022AF4B00F0E6FB12901391129B139CE6
:104B4000AC4A10931194139B9C181194002D5FD1C3
:104B5000089809990022A84BFEF76CFA109A2300D6
:104B600008900991FEF7D8FE002800D0F8E2A3488B
:104B70001399844661440B0008980999109AFEF72E
:104B8000B7FE002800D0E1E2149B159C089309941D
:104B90001B9B002B00DA55E1039A0E2A00DD51E140
:104BA000D3008F4A9B185C681B6806930794239B6D
:104BB000002B00DBD0E0002F00DDCDE0002F00D087
:104BC000C7E20698079900228B4BFDF7ABFF089AC6
:104BD000099BFEF7ABFE3E000697002800D09DE241
:104BE0000A9B0A9A5D1C31231370039B01330393C4
:104BF00098E20122154205D0A41832687368FDF7C7
:104C000091FF01236D10083662E7039E3D0088E79F
:104C10000A9A6B1E521917920E9ADB00002A4BD08B
:104C20006F4A00209B181A685B687549FDF752FCB3
:104C3000109A119BFEF7FEF90A9B109011911293A6
:104C400008980999FEF742FD0400FEF76DFD020089
:104C50000B0008980999FEF7EDF9129B30345D1CA2
:104C60001C70109A119B08900991FEF741FE0028D4
:104C700066D1089A099B00205B49FEF7DBF9109A80
:104C8000119BFEF735FE002800D0BCE0179B9D422B
:104C900000D179E7109811990022544BFDF742FF9B
:104CA00000221090119108980999504BFDF73AFF96
:104CB000129508900991C3E7494A9918086849680C
:104CC000109A119BFDF72EFF109011910A9C179DD1
:104CD00008980999FEF7FAFC1290FEF725FD0200EC
:104CE0000B0008980999FEF7A5F9129B0890099105
:104CF00030332370179B01340022A34224D1404B50
:104D00001098119900F0FEFA02000B00089809991A
:104D1000FEF702FE002800D075E0109A119B0020DB
:104D20003749FEF787F902000B0008980999FEF74A
:104D3000DFFD002800D127E76B1E1A78302A01D04A
:104D400003963DE01D00F7E708980999274BFDF70A
:104D5000E9FE08900991BBE70A9E069A079B08980E
:104D60000999FDF7B7FBFEF7B1FC0400FEF7DCFC88
:104D7000069A079BFDF7D6FE0B00020008980999DA
:104D8000FEF758F92300303333700A9B751CEB1A79
:104D90009F4249D102000B0000F0B4FA06000F0058
:104DA00002000B0006980799FEF7A2FD50BB06987B
:104DB000079932003B00FEF795FD08B1E30721D4C7
:104DC00005990498FFF7F3F800232B70039B249AAE
:104DD00001331360269B002B00D1EAE41D60E8E458
:104DE000E85C0000C05C00000000F03F00002440D0
:104DF00000001C400000C0FC000014400000C07C0B
:104E00000000E03F039E6B1E1A78392A06D10A9AE9
:104E10009A4207D130231370130001361A780132F9
:104E20001A708DE71D00EEE70022CC4BFDF77AFEED
:104E300000220023089009912E00FEF753FD002860
:104E40008BD0BDE70E9A002A00D185E0229A012A74
:104E50006CDC189A002A65D040F233429B18069DFC
:104E60000B9C0B9A0121D2180B920D9A0498D3181F
:104E70000D93FFF734F90600002C0EDD0D9B002B7F
:104E80000BDD0D9A2300944200DD13000B9AE41A07
:104E9000D21A0B920D9AD31A0D93069BF3B10E9B67
:104EA000002B5DD0002D11DD31002A000498FFF7A2
:104EB000ADF9059A010006000498FFF719F9059964
:104EC00010900498FFF773F8109B0593069B5A1BEC
:104ED00022B105990498FFF799F9059001210498EA
:104EE000FFF7FDF80F9B0690002B3BDD1A00010039
:104EF0000498FFF78BF9229B06900025012B38DCE4
:104F0000089B002593BB099B1B037BBB199B099A3C
:104F100013422BD00B9B013501330B930D9B0133B7
:104F20000D9323E036231A9A9B1A98E7069B7D1E61
:104F3000AB4206DB5D1B002F0BDA0B9BDC1B002357
:104F40008FE7069B0695EA1A0F9B00259B180F9387
:104F5000F1E70B9C3B0084E7069D0B9C0E9E8BE7C4
:104F6000069AB6E7229B0025012BC9DD0F9B012085
:104F70005BB1069B069A1B690F9303339B00D31802
:104F80005868FFF766F82023181A0D9BC0181F23D6
:104F90001840002800D1AAE001331B1A042B00DCC2
:104FA0009AE01C23181A0B9B24181B180B930D9BBB
:104FB0001B180D930B9B002B05DD1A000599049817
:104FC000FFF770F905900D9B002B05DD1A0006997F
:104FD0000498FFF767F90690169B002B00D188E034
:104FE00006990598FFF7AEF9002800DB81E0039BE6
:104FF0000A22013B0393059900230498FEF7EEFF74
:105000000E9B0590002B00D159E1002331000A22AC
:105010000498FEF7E3FF0C9B0600002B02DC229BAA
:10502000022B6CDC002C05DD310022000498FFF718
:1050300039F9060030008DB171680498FEF783FFDE
:105040003100040033690C319A1C92000C30FEF7D9
:1050500071FF012221000498FFF724F90C9F0A9B9D
:10506000013F0B93DB19370006000F930699059853
:10507000FFF7D4FA39000D9004000598FFF762F9A4
:1050800032000E9006990498FFF775F901230C93EE
:10509000C3683034050023B901000598FFF752F9C1
:1050A0000C9029000498FEF782FF0C9B229A134370
:1050B000002B00D085E0089A0133134200D080E035
:1050C000392C00D1A0E00E9B002B01DD0D9C31346A
:1050D0000B9B5D1C1C7026E0042B00D16AE70B9A29
:1050E0001C33D2180B920D9AE418D31861E7030011
:1050F000F5E7002F38DC229B022B35DD0C970C9B4B
:1051000063B9069905220498FEF768FF069001002E
:105110000598FFF717F9002800DD61E5239B0A9D3C
:10512000DB430393002706990498FEF740FF002E07
:1051300000D145E62FB1B74203D039000498FEF7FD
:1051400036FF31000498FEF732FF39E606952E004F
:10515000E4E7002306931E00E0E7C0460000244079
:10516000039606952E003BE50E9B0C97002B00D076
:1051700058E70A9D06990598FFF750FA0A9B3030C8
:105180000C9A287001350400EB1A9A4279DC151E3E
:1051900000DC012500270A9B5D190599012204986E
:1051A000FFF780F806990590FFF7CCF8002830DC6F
:1051B00008B9E3072DD46B1E1A78302AB3D11D002D
:1051C000F9E70E9B002B07DB1D00229B1D433DBB17
:1051D0000123089A134223D10C9B002B00DC77E7B4
:1051E000059901220498FFF75DF806990590FFF7ED
:1051F000A9F8002805DC002800D069E7E30700D4FF
:1052000066E7392C00D061E70B9B0B9A5D1C3923B4
:1052100013706B1E1A78392A3BD001321A7082E75C
:105220000B9B01330D930C9B002B05DD392CEBD030
:105230000D9D01340B9B4DE70B9B0F9A0D9D1C7030
:105240009342AAD000230A2205990498FEF7C6FECD
:10525000002305900A2239000498B74206D1FEF7D0
:10526000BDFE070006000D9B0B93FFE6FEF7B6FEA2
:105270003100070000230A220498FEF7AFFE060063
:10528000F1E700230A2205990498FEF7A7FE05908E
:1052900070E70A9A9A4205D1039B013303933123A5
:1052A000137040E71D00B4E7094BFFF79FFA269BF8
:1052B000002B01D0FFF778FA064BFFF797FA0C9B0B
:1052C000002B00DD55E7229B022B00DC51E716E79F
:1052D000C95D0000BC5D000010B5034B01001868FB
:1052E000FFF726F910BDC046040000207047704744
:1052F00002B4714649084900095C49008E4402BC69
:105300007047C046F8B557464546DE464E460C0344
:10531000E0B54D00CF0F610A440F0C43C6001903DE
:105320005800DB0F9B464B0A510F0B436D0D1900C4
:10533000D300A846400D3D009A465F4500D1B7E036
:1053400045462D1A002D00DC09E198B90B005246A4
:105350001343002B00D1E8E06B1E002B00D059E175
:10536000B21A9642B641641A7642A41B40F2010872
:10537000160021E040F2FF7398454BD080231B04B8
:105380001943382D00DD23E11F2D00DD5AE12020D7
:105390000B00401B83401A005346EB401343524618
:1053A0008240501E8241E9401A43B21A611A964265
:1053B000A441160064420C1B230269D56402650AED
:1053C000002D00D1EAE02800FEF7BAFA0300083BFE
:1053D0001F2B00DDEBE020223400D21AD4409D4088
:1053E0009E4025434246984500DDE8E09B1A5A1C42
:1053F0001F2A00DD15E12023300029009B1AD04030
:1054000099409E402C000143701E8641D44040F2DA
:1054100000080E43730709D00F233340042B05D037
:10542000331DB342B6417642A4191E00230231D582
:10543000434640F2FF720133934200D1C4E03D0085
:10544000CE49F6080C40600764020643240B1A405C
:1054500000212403230B0C0D24051C4313054FF6D8
:10546000FF72C8F20F02144023435B00ED075B0894
:105470002B43300019003CBC90469946A246AB46EF
:10548000F8BD64460443002C00D154E20400664693
:105490007307C1D13D006007F6080643E40840F2F7
:1054A000FF72904534D043462403240B1A40CFE7C3
:1054B00043461B1A002B00DC90E0C0B340F2FF70A3
:1054C0008045A7D0802000040143382B00DC00E198
:1054D00052460A43511E8A4100219219B242B641F6
:1054E0000919744216000C192302D1D540F2010C9F
:1054F00040F2FF73E044984500D154E101209F4BF6
:105500001C40730806401E43E0070643640881E719
:1055100023003343002B00D106E280231B031C43EE
:105520002403240B40F2FF7292E7A84672E70800BA
:1055300052461043002800D1C9E0581E002800D070
:10554000EEE0B218B2429B4164185B42E4181600C8
:1055500040F2010823029BD540F20208CEE7002D5D
:1055600000D080E04046451C40F2FF7028400128F2
:1055700000DC05E1F01A844686428041651A40420B
:105580002D1A2A0200D497E09E1BB24592410C1BB3
:105590005242A51A5F46002D00D014E73000FEF7F6
:1055A000CFF920300300083B1F2B00DC13E7350048
:1055B0002838854000264246984500DC16E76F4CA7
:1055C000D31A98462C4025E73D00002400263FE7EB
:1055D00052460A43511E8A410021E6E6002B00D0C4
:1055E000F8E040F2FF704346020001331A40012AFE
:1055F00000DCA4E0834200D1D3E05246B218B242AC
:10560000B64164187642A419E607520816436408A6
:105610009846FFE640F2FF70854200D188E01D0009
:10562000AFE629001F3BD940202A00D183E0402368
:105630009A1A95402E43751EAE4100240E4340F247
:10564000000825E72B000800203BD8400300202D50
:1056500073D04020451BA94052460A43511E8A413F
:1056600000211A43A1E64246002A47D040F2FF77C4
:10567000B8424FD080273F046D423C43382D00DDB7
:10568000EEE01F2D00DD59E120277A1B270094460C
:1056900097403200EA40174362469640721E964198
:1056A000EC403E4353469E1BB24592410C1B524276
:1056B000A41A80465F467FE664462C436646002C6B
:1056C00000D07DE6002540F200080026E7E6984677
:1056D000A0E61F2B6ADC2020C21A080094469040E6
:1056E0005246DA40104381466246504690400200DE
:1056F000501E82414846D9400243EEE62700374318
:10570000002F00D1A7E0ED43002DCBD040F2FF7772
:10571000B842B3D10C00564640F2FF785F4679E6B6
:1057200040F2FF7C634503D00300CEE60C005646F2
:1057300040F2FF786EE600257CE700218CE74346C7
:10574000002B00D0D2E023003343002B00D117E11F
:105750000B0052461343002B00D15BE6B218B24255
:10576000B64164187642A419230200D426E1034B03
:1057700016001C4040F201084CE6C046FFFF7FFFC8
:10578000200042463043002A59D1002800D096E03C
:105790000C001C43002C00D1CDE00C001E005F4625
:1057A00038E640F2FF780024002678E618000A0068
:1057B0002038C2401000202B00D1BAE040F2400C4B
:1057C0006246D31A994052460A43511E8A4100212B
:1057D000024382E64246002A47D122003243002A91
:1057E00000D1BDE0DB439B460BB340F2FF7C60453C
:1057F0009CD05B46382B00DDBDE01F2B00DDC2E0F6
:1058000040F220084246D21A9046220043469A406F
:105810005B4694463200DA40914662464B461A4354
:1058200043469E40731E9E415B46DC4016435644F1
:105830005645924164185242A418804654E6F8B97D
:1058400008001843002800D18EE00C001E005F46BF
:1058500040F2FF78DEE50C001E0080465F46D9E589
:105860002643741EA64100241CE740F2FF7C6045DD
:1058700000D15BE780225B4212049B461443B8E7E9
:105880000800184340F2FF78002800D1C2E5F00874
:10589000660706438020E4080003044208D0CD08D0
:1058A000054205D1DA08490711430E002C005F4676
:1058B000730FE4001C43F60040F2FF78AAE50800ED
:1058C0001843002800D1A5E5F21A9642AD41601AAE
:1058D0006D42401B9446020200D4D2E59E1BB245A5
:1058E00092410C1B5242A41A5F4693E523003343B6
:1058F000002B00D11AE70B005246134340F2FF7809
:10590000002B00D186E5F008660706438020E408F6
:1059100000030442CCD0CB080342C9D1D2084907C6
:1059200011430E001C00C3E7002640F2FF72002462
:105930008EE5002147E700250026B0E52F00220074
:10594000203FFA401700202D36D040F2400C62462E
:10595000551BAC402643741EA64100243E43A1E6DD
:105960000C005646804655E580240025240340F26D
:10597000FF78002693E52643741EA641002456E7CF
:105980000C00564646E520235B429C46DC446346B9
:105990002200DA405B469446202B11D040F24008AA
:1059A0005A4643469B1A9C402643741EA6416346B2
:1059B00033431E0000243AE70024CBE7160067E5D6
:1059C0000024F1E72E2E2F68616C2F696E636C75D1
:1059D00064652F68616C5F7764742E680000000056
:1059E0002E2E2F68616C2F7372632F68616C5F6954
:1059F00032635F6D5F73796E632E63002E2E2F68A6
:105A0000616C2F7372632F68616C5F696F2E630026
:105A10002E2E2F68616C2F7372632F68616C5F7517
:105A2000736172745F73796E632E630000040042C9
:105A300000080042000C004200000000140020009A
:105A4000000100000E0F00000000D70000093D001B
:105A50002E2E2F68706C2F736572636F6D2F6870B8
:105A60006C5F736572636F6D2E6300002E2E2F685E
:105A7000706C2F7764742F68706C5F7764742E631A
:105A800000000000244C3131543A00003A54656D56
:105A900070463A00462A0A00244C3131503A000040
:105AA0003A507265733A00006850612A0A0000009B
:105AB000244C3131483A00003A48756D69643A0027
:105AC000482A0A0053414D4C31312053746172749D
:105AD000696E672055700D0A00000000424D453286
